:03000000020800F3
:0C080000787FE4F6D8FD758120020847DF
:040990000219000048
:010A000022D3
:010A010022D2
:100994000A0C039F250D9949411F01090408000011
:0209A400000051
:0C09C100E4FF74082FF876030FBF03F664
:0109CD002207
:060968008B168A178918A6
:10096E00E4FFAB16AA17A9188F827583001209121D
:10097E00540F240CF8E6FE74082FF8A6060FBF03DA
:01098E00E187
:01098F002245
:10088C00E50B1460161460222402702BD2B3D2B480
:10089C00D2B5E508F4F580C2B3801CD2B3D2B4D281
:1008AC00B5E509F4F580C2B4800DD2B3D2B4D2B59B
:1008BC00E50AF4F580C2B5050BE50BD394024003B1
:0408CC00E4F50B2222
:0309FD00C2002213
:0D09CE00300005D281C20022C281D2002279
:0409A600021B000030
:10093F001209ED1209F51209FDD2AF1209C1120AFF
:10094F0000C3E51C94F4E51B940140081209CEE4A2
:09095F00F51BF51C120A0180E8E9
:0809ED00438901D2A90209DBD4
:0909DB00758CFC758A66D28C2231
:03000B000209AB3C
:1009AB00C0E0C28DC28C051CE51C7002051B050046
:0609BB001209DBD0E0325E
:0809F50075C901D2AD0209E44D
:0909E40075CDF875CCCDD2CA2204
:03002B000208D0F8
:1008D000C0E0C0F0C083C082C0D075D000C000C0EE
:1008E00001C002C003C004C005C006C007C2CFC219
:1008F000CA12088C1209E4D007D006D005D004D063
:1009000003D002D001D000D0D0D082D083D0F0D09C
:02091000E032D3
:10080C0002093FE493A3F8E493A34003F68001F2BA
:10081C0008DFF48029E493A3F85407240CC8C333ED
:10082C00C4540F4420C8834004F456800146F6DFBC
:10083C00E4800B0102040810204080900990E47EB3
:10084C00019360BCA3FF543F30E509541FFEE493B1
:10085C00A360010ECF54C025E060A840B8E493A378
:10086C00FAE493A3F8E493A3C8C582C8CAC583CAA3
:10087C00F0A3C8C582C8CAC583CADFE9DEE780BE5B
:0109AA00004C
:10091200BB010CE58229F582E5833AF583E022509A
:1009220006E92582F8E622BBFE06E92582F8E222E4
:0D093200E58229F582E5833AF583E49322FE
:00000001FF
